:1040000000800020E95E00007F5D00007F5D000011
:1040100000000000000000000000000000000000A0
:104020000000000000000000000000007F5D0000B4
:1040300000000000000000007F5D00006D5D0000DA
:104040007F5D00007F5D00007F5D00007F5D000000
:104050007F5D00007F5D00007F5D0000815D0000EE
:104060007F5D0000856900007F5D00007F5D0000CE
:10407000855100007F5D0000956900007F5D0000B4
:104080007F5D00007F5D00007F5D00007F5D0000C0
:104090007F5D00007F5D00007F5D00007F5D0000B0
:1040A0007F5D00007F5D00007F5D00007F5D0000A0
:1040B00010B5064C2378002B07D1054B002B02D0FE
:1040C000044800E000BF0123237010BDCC03002092
:1040D00000000000441B010008B5084B002B03D072
:1040E0000748084900E000BF07480368002B03D0D9
:1040F000064B002B00D0984708BDC04600000000CA
:10410000441B0100D0030020C80300200000000071
:10411000084B1A68002A01D1074A1A601A68074931
:104120001018884202DC1860101C01E00120404297
:104130007047C046E80300209C110020FF7F00204C
:1041400001204042704780239B0100204B60704754
:10415000012070470020704700207047031C00209A
:10416000012B03D1131A06D40130FBE7024B0922BD
:1041700001201A604042704798110020011C08B5C8
:10418000014809F065FBFEE780E900007047012067
:104190004042704710B501F0D9FE012001F0D6FD74
:1041A000054C201C03F016F9201C03F073F90A20BB
:1041B00001F0CCFD10BDC0466C10002038B5FFF7F3
:1041C000E9FF962189010A4802F0F0FC094C201C05
:1041D00000F042FE084D281C00F0AEF9201C00F053
:1041E00075FB201C00F0E4FE281C00F031FAF8E713
:1041F000CC0B0020EC0300207808002008B506480E
:1042000000F0E5FA054800F0D5F8054800F00CF894
:10421000044800F055F808BDEC03002078080020A1
:10422000200800202808002000230380438083808A
:1042300070471C31490040184088704738B5037CEE
:10424000041C0A2B01D100230374257C0B886D000C
:104250006519EB8401F074FDE368C01A6882237C61
:104260000133237438BD012310B5C372041C01F05F
:1042700067FDE06010BD000070B50F4B00240A26FA
:10428000051C321CC460C4720474211C26301C70CE
:1042900009F03AFA281C321C211C123009F034FAB9
:1042A000281C321C211C3A3009F02EFA0348012147
:1042B00000F0CAFB70BDC04608090020EC030020D6
:1042C00010B50549041C0A2209F015FA201CFFF755
:1042D000D3FF201C10BDC04699E90000F8B50B883B
:1042E000061C0F1C002B02D0051C012407E0FFF761
:1042F000C3FF19E0A98F002906D0013402350B4A0B
:1043000013789C42F6DB0FE03888315D8842F4D8A0
:104310000133137001F014FDF3680121C01AA8875E
:10432000034800F01BFCE8E7F8BDC0460809002080
:10433000EC03002037B5041C1B4800F077F86D46ED
:104340000635031C2880E07A03282CD809F0C8F829
:1043500002081527002B26D0201CFFF784FF22E03F
:10436000002B06D01148002100F06EFB0223E372FF
:1043700003E0201CFFF780FF15E0201C291CFFF73D
:104380005DFF201C291CFFF7A9FF01F0D9FCE368A1
:10439000C01A074B984206D90323E37203E003488F
:1043A000012100F051FB37BD78080020EC0300200C
:1043B0005FEA000010B50021041C017241728022E6
:1043C0000A3009F0A1F9201C10BD000007B5037BDD
:1043D000012B26D1437B062B1AD0122B21D1431D52
:1043E000DB7F01A90B70831DDB7F04224B70C31D93
:1043F000DB7F8B70031C0833DB7F0430CB7009F04C
:104400007AF9084800F06AFB0748FFF793FF08E0D5
:10441000837E0370031C3F331B784370014800F018
:10442000DBFA07BDEC0300202808002010B5437814
:104430000024032B0DD94368E120000158430649AD
:1044400009F058F8F42380B2FF3383426441644298
:104450000440201C10BDC046A0860100F0B585B008
:10446000334D03930AAB1B780F1C281CB521029215
:10447000019302F0E7F96221281C02F0E3F902201F
:1044800003F0F4F80026041C06704670391C281C42
:1044900002F0D8F923780299FF186378FFB22770E9
:1044A000FF186770281C02F0CDF92378029A019951
:1044B000D3186278DBB223709B186370281C02F05B
:1044C000C1F92378019A311CD3186278DBB22370CA
:1044D0009B186370281C02F0B5F962782378039E5C
:1044E000D3186370039AB31A019ADBB293420DD2C8
:1044F0003178281C02F0A6F9327823780136D318D7
:104500006278DBB223709B186370EBE72178281C7C
:1045100002F098F96178281C02F094F9201C03F04D
:10452000A1F8281C034901F04EFF05B0F0BDC046BC
:10453000400A0020D9E9000073B59621041C8901C6
:10454000344802F019FA242208250092201C062182
:10455000314BFFF783FF0095201C062101222F4BD2
:10456000FFF77CFF0095201C062101222C4BFFF752
:1045700075FF0095201C062101222A4BFFF76EFFD4
:104580000095201C06210122274BFFF767FF0095AD
:10459000201C06210122254BFFF760FF0095201CFF
:1045A00006210122224BFFF759FF0095201C06210E
:1045B0000122204BFFF752FF0095201C062101220B
:1045C0001D4BFFF74BFF0095201C062101221B4BC2
:1045D000FFF744FF03260095201C06210122184BFB
:1045E000FFF73CFF0096201C06210122154BFFF728
:1045F00035FF0096201C06210122134BFFF72EFFEA
:1046000006212A1C0091201C104BFFF727FF0123D5
:10461000637273BD400A002007EA0000A9E90000A8
:10462000F7E90000B9E90000C9E90000D1E900009C
:10463000FFE90000B1E90000C1E900002BEA000039
:1046400033EA0000F4E900003BEA0000A3E90000BF
:10465000F8B5437A041C002B6FD0067A374D002E34
:104660001AD0281C02F0DFF8354C002807D0281C8F
:1046700002F0E3F8C1B2201C02F0AAF9F1E7201C15
:1046800002F01CFA002858D0201C02F0DDF9C1B25B
:10469000281C02F0D7F8F2E7281C02F0C4F8002822
:1046A0004BD0281C02F0C9F8251C8A352B78C0B2E3
:1046B000E2189072012B0FD8224AD25C82423CD180
:1046C0000133DBB22B70022B37D1231C8C338B349C
:1046D0001E705E70267030E0221C8B32042B00D1DD
:1046E00010701278511D994208DB211C8C310E7814
:1046F0004F788619F6B20E70F6194E70911D8B42E6
:1047000007D1211C8C310978814202D00C480E4916
:1047100009E0073293420ED1231C8D331B7883426C
:1047200004D00748094901F05FFE02E0201CFFF7B2
:104730004DFE002300E001332B70F8BD400A00203D
:10474000CC0B0020F2E90000DCE90000E7E9000002
:1047500008B500220270FF2241708270081C0221FD
:1047600001F034FD08BD70B5041C01F0E9FA061C27
:10477000607801F0F1FD6268C0B2002A04D1131C18
:10478000002822D1666020E0002802D00023636068
:1047900007E0B61A031C312E17D92578002D02D157
:1047A0000123237011E00521491BC90189B2032DA2
:1047B00006D88E4209D38A1801356260257003E05D
:1047C0008E4202D38A1862600123181C70BD13B593
:1047D0000C2300930D23041C01930A2109220B23AF
:1047E00001F080F8201C16BD8523DB00C256032A89
:1047F00002D1034A00211172FF22C2547047C04601
:10480000780800201FB5041C01F0BAF8802300933B
:104810002A230021019301230293201C0A1C034B2D
:1048200000F0CAFD201C01F01FFA1FBD0600002089
:10483000F0B53E2385B001210026009301967E232A
:104840000A1C041C01F03BF91F4B1B7A5BB2042BC2
:1048500000DD1E1F0C235B427343B21C9BB2351C50
:10486000039202930C273B1C6B43029A201C0A32D2
:10487000D21812B2052100F08AFF134A0823D3563A
:10488000AB420DD1AA1B7A43012102320191201CB7
:10489000D2B200977E2301F012F9201C022101E020
:1048A000201C012100F076FF074AAB009958201C1C
:1048B00001F089FD039B01359D42D3D1201C01F0FD
:1048C000D3F905B0F0BDC046A802002037B5041CDE
:1048D00001F056F8201C0A4900F061FF0125002173
:1048E000402300930195201C0A1C802301F0ABF8A3
:1048F000201CFFF79DFF8523DB00E55437BDC04634
:1049000068EF000008B5064B1A7A0132D2B251B2F4
:10491000012900DD00221A72FFF78AFF08BDC04698
:10492000A802002010B5064B1A7A013AD1B214063B
:1049300001D4197201E001221A72FFF779FF10BD4C
:10494000A802002070B58523DB00C35686B0041C86
:10495000022B36D11C4E7378032B32D801F0F0F9BC
:104960001A4BE358C01AFA282BD9201C184900F01A
:1049700016FF1849102202A808F0BDFE00250B23DF
:10498000009301954C23201C3421362201F097F826
:104990007378032B15D88623DB00E358201C291CD1
:1049A000AB4200D1012100F0F5FE201C38213C2251
:1049B00000F0EDFE201C02A901F005FD201C01F015
:1049C00053F906B070BDC046780800202C040000E2
:1049D00068EF000074EF000073B58523DB00C35659
:1049E000041C022B29D1154B5D78FFF7ABFF144E49
:1049F0000023F356AB4220D0201C0121357000F07B
:104A0000C9FE0A25002336220193201C0E23291CEF
:104A1000009501F054F8201C0A4900F0C0FE201C4B
:104A20000C213D2200F0B3FE00217156201C2A1CEF
:104A300001F029FD201C01F017F973BD7808002052
:104A40000000002068EF000070B58523DB00C3562E
:104A500086B0041C0D1C022B37D1002909D00B2372
:104A600000930023019328213622582301F027F8D0
:104A700028E0092301263622009301935A21144B82
:104A8000029600F099FC201C124900F088FE1249A1
:104A9000052204A808F02FFE0B2336220093201CC9
:104AA0001C236421019601F00AF8201C291C00F047
:104AB00071FE201C68213D2200F069FE201C04A923
:104AC00001F081FC201C01F0CFF806B070BDC0469B
:104AD000C602002068EF000084EF000073B5852354
:104AE000DB00C356041C022B31D11948FFF79EFC92
:104AF000184E0222B35E834229D080B2708000B289
:104B00000925632803DC0E25092800DC1525201C57
:104B1000012100F03FFE201C0F4900F040FE29B2A9
:104B2000201C2A2200F033FE0E2300930023019361
:104B3000201C22230921132200F0C1FF0223F15E71
:104B4000201C0A2201F09FFC201C01F08DF873BD8F
:104B5000780800200000002024F70000F0B585B0A0
:104B6000041C03913C4900F01AFE201C012100F0B6
:104B700011FE2323009300230193201C7B210F228D
:104B8000032300F09CFF01257C2131230093201C8E
:104B90000B1C0F22019500F0FBFE304A0523127911
:104BA000201C5A430F320093D2B201957B2103237C
:104BB00000F085FF172600270723B21FD2B200930B
:104BC00001974123201C352100F079FF32B2201CCF
:104BD000362100F0DCFD2249201C01F0F4FB1F4AC5
:104BE0000423D3561F4A201C5219D15C02920A2278
:104BF00001F059FC391C0A22201C01F044FC174A20
:104C00000423D356029A174FD35C092B03D8201CD8
:104C1000154901F0D8FB114B04215956381C69186D
:104C2000FFF707FB011C201C002905D00A2201F018
:104C30002AFC201C0D4900E00D490C36013501F01D
:104C4000C2FBB6B2042DB6D1039A002A02D0201CB2
:104C500001F00AF805B0F0BD68EF00000000002088
:104C600089EF000028080020B41A01008CEF000032
:104C70008FEF0000F0B585B0041C012500F080FE28
:104C80000D270021201C0A1C00970195802300F0AD
:104C900016FF2A230093201C2526019500210B22B4
:104CA000802300F0D0FE201C0096019502210E22E8
:104CB000302300F0C8FE26223023201C00970195E7
:104CC000022100F0FCFE201C2A4900F068FD201C97
:104CD000291C00F05FFD201C0096019531210E2259
:104CE000492300F0B0FE1A220092201C01953221C7
:104CF000792300F04DFE26220092201C01953221DE
:104D0000792300F045FE322279230092111C201CE9
:104D1000019500F03DFE201C022100F03BFD201C0F
:104D20002F22092100F033FD201C134901F04BFB19
:104D3000201C09221B2100F02AFD201C0F4901F034
:104D400042FB0923362200930193201C0C4B029551
:104D5000002100F031FB201C0021FFF7FFFE201C8A
:104D600000F082FF074BFF221A706A425A8005B09A
:104D7000F0BDC04668EF000093EF000099EF00001F
:104D8000B40200200000002010B50B4B1A79002956
:104D900006D00132D2B251B2062908DD002206E067
:104DA000013AD1B2140601D4197101E006221A7138
:104DB0000121FFF7D3FE10BD0000002010B5041C38
:104DC0000348FFF759FA201C0121FFF7C7FE10BD69
:104DD0002808002010B5041C00F0D2FD0722201C7A
:104DE000002100F0D4FC201C064900F0D8FC064944
:104DF000201C01F0E8FA201C00F036FF034B0122D2
:104E00001A7210BD68EF0000A6EF000078080020BD
:104E100070B58523DB00C25C041C0E1C1D1C7F2AA0
:104E200001D8FFF7E1FCF0B2605540B2032812D878
:104E300008F056FB02060A0E201CFFF7E3FC0AE00E
:104E4000201CFFF743FD06E0201CFFF713FF02E0E4
:104E5000201CFFF7BFFF70BD10B5041C00F082FEE0
:104E6000201C00F08DFD201C0021FFF7D1FF082041
:104E7000012101F0ABF90024211C082001F0CEF83B
:104E80000134022000F062FFFE2CF5D10820012140
:104E900001F03AFA08480421FFF75AFC07480521B7
:104EA000FFF756FC06480321FFF752FC0548022194
:104EB000FFF74EFC10BDC046140900201C0900205D
:104EC0000C0900202409002008B5064B1B7A5BB2B0
:104ED000002B03D0012B04D1032100E00221FFF7B6
:104EE00097FF08BDA802002010B58523DB00C3563C
:104EF000041C022B1FD0032B41D0012B4FD128487B
:104F0000FFF731FC002802D0201CFFF7FBFC2548EE
:104F1000FFF729FC002802D0201CFFF703FD2248E0
:104F2000FFF721FC002802D0201CFFF7CDFF1F480F
:104F3000FFF719FC33E01A48FFF715FC002803D0EF
:104F4000201C0121FFF720FF1648FFF70CFC00286A
:104F500003D0201C0021FFF717FF1348FFF703FCC5
:104F6000002803D0201C0121FFF752FF0F48FFF754
:104F7000FAFB002813D0201CFFF720FF0FE00848A1
:104F8000FFF7F1FB0748FFF7EEFB0748FFF7EBFBE6
:104F90000028CCD0201C0121FFF73AFFC7E710BD45
:104FA0001C0900200C0900201409002024090020FD
:104FB00038B50E4D041CFFF797FF6359002B02D143
:104FC00000F0BEFE605100F0BBFE6359C01AFA2328
:104FD0005B00984209D900F0B3FE044BE0508623F1
:104FE000DB00E05842424241E25038BD2C04000050
:104FF000F8B5051C0F1C161C0024B44208D02B6801
:10500000395D1B68281C9847002801D00134F4E75B
:10501000201CF8BD704708B5183001F062FA08BDD1
:1050200008B5183001F06BFA08BD08B5183001F06A
:105030006CFA08BD38B5041C00690D1C01F01EFB9C
:1050400000280ED0A37D002B10D06034201C01F06E
:1050500065FA00280AD1201C291C01F033FA01202E
:1050600005E02069291C01F0FDFA00E0002038BDB0
:10507000F7B50193FA239B0083600B4B002508339F
:10508000041C4560036018300F1C161C01F00FFA59
:10509000201C603001F00BFA019B27612675A57575
:1050A000201C6375FEBDC04630F7000038B5041CF7
:1050B000006901F0ECFA002863D0206901F0F5FAEC
:1050C00000280ED1206901F0FAFA00281FD02069CB
:1050D00001F0F0FA00281AD0206901F0F5FA002852
:1050E00015D1206901F09EFA2069032101F0A4FA8C
:1050F000231CB0331D68002D04D02368201C9B683E
:105100009847A847201C183001F0E7F939E02069DA
:1051100001F0D5FA031C2069002B15D001F082FAAA
:105120002069032101F088FA206901F0CDFA0028F6
:1051300027D0206901F0B4FA0028FAD0AC342368F3
:10514000002B1ED098471CE001F0AAFA002818D0C6
:10515000251C1835281C01F0E1F9031C2069002BDF
:1051600002D001F056FA08E001F0B3FA011C281C45
:1051700001F0A8F9206901F055FA2069032101F036
:105180005BFA38BD08B50248FFF790FF08BDC0467E
:105190002C09002008B50348034910221123FFF70A
:1051A00067FF08BD2C090020A00A0020F0B587B0D9
:1051B0001E1C0CAB071C151C00201B5E0DAA1288C0
:1051C0000C1C591B0492CA1789185140321BD01766
:1051D00012184240914208DD321C01211E1C131C92
:1051E000221C01912C1C151C01E000220192B442EA
:1051F00005DD2A1C1D1C131C221C341C161C321B12
:1052000092B202925A1BD11750184840059002984A
:1052100002B2D10F8A18521092B200929D4202DA65
:10522000012103911FE0154A03921CE001983B689D
:1052300000281BD09968381C8C46221C291C049B12
:10524000E04700980599431A9BB29AB2009212B2B5
:10525000002A06DA029903985B182D189BB22DB22A
:105260000093013424B2B442E0DD05E09A68381CB2
:105270009446211C2A1CE2E707B0F0BDFFFF0000A6
:10528000F0B585B01F1C0AAB151C0E1C0022995EE0
:105290000BAB1B88039102930299036800915A6932
:1052A000311C94463B1C2A1C041CE04702992368CD
:1052B000039A00915969013A52198C46201C311CFD
:1052C0003B1C12B2E047029A236800921969201C25
:1052D0008C462A1C311C039BE047029A2368013F3D
:1052E0000092BE1931B21F69201C2A1C039BB847CB
:1052F00005B0F0BD37B5013B0C1C06A90D889B1805
:1053000001681BB200930195CD68231C211CA8479E
:1053100037BD37B506AC2588013B046801955B189D
:1053200000921BB2E468A04737BDF0B587B0039385
:105330000CAB0D1C171C0022995E0DAB1B88061CC4
:10534000049105932C1C03996B189C420CDA059967
:10535000336800911A69211C9446301C3A1C049B46
:105360000134E04724B2EEE707B0F0BD37B50C24B6
:10537000035F0E25445F0268019100940021D46907
:105380000A1CA04737BD704710B50A4C4281C28144
:10539000012200230834018181815142436004606D
:1053A0004376038243820276C18281828276C3760B
:1053B000C36110BD50FC0000F0B589B005930EAB81
:1053C000071C03910021585E0FAB0190049200204E
:1053D0001A5E10AB1B8806920793019B00240733CB
:1053E000DA17520FD318DB100293251C06982BB244
:1053F000834226DA0026B1B2019A0BB293421CDA3C
:105400004A0704D000984310DBB2009304E00598EB
:10541000DB100219D25C0092009AD2070BD50398D8
:105420003B680918049809B22A18986812B2844691
:10543000079B381CE0470136DDE7029B0135E41885
:10544000D4E709B0F0BD0000F0B595B00E921AAAED
:105450001288051C0C921BAA128805910B921CAA9B
:105460001478C269002A00D093E00C21425E0599AD
:105470008A4200DC08E10E21425E0E998A4200DC7D
:1054800002E10622624305998A18002A00DCFBE04B
:105490000E99E2008A18002A00DCF5E0C27E002A9C
:1054A00003D1AF2B01D90133DBB205225A430023CC
:1054B0000F92062209920A930A994BB2052B04D047
:1054C000724A0F995218D25C00E000229BB20793F7
:1054D00063430599049289B20E9ACB1896B29BB297
:1054E0000D93331C08339BB206911093371C08961A
:1054F000049BDB0714D52868012C09D1079A069B69
:10550000D118836809B29C463AB2281C0C9B17E05C
:105510000D9A33B2119323B211B200930C9A19E091
:105520000B9B0C998B421BD02868012C0AD1079A3F
:10553000069BD118836809B29C460B9B3AB2281C83
:10554000E0470DE0089B0D9A1BB211B211930B9A24
:1055500023B200930192C269281C9446119AE04735
:10556000049B08995B08049301370B19109A3619AC
:105570009BB2BFB2B6B208939742B9D10A9B01332E
:10558000DBB20A93099B013BDBB20993002B93D159
:105590007AE0117A5B1ADBB25168DB0012685B18A3
:1055A000997811921A88099104925979DA789B793D
:1055B00012920A910B93012C04D95BB24EB29BB2AA
:1055C000B6B20F936643059A92B29619B6B2109688
:1055D0000026089205961299F3B28B4254D20F9985
:1055E0000E9A7318634392B2D3180D92109A9BB21D
:1055F0001393079200270599FBB25A180999D2B262
:105600008B423AD2530707D1049B049A1199013374
:10561000895C9BB206910493069A120622D52868EB
:10562000012C11D10A9B089A59B20B9B51185AB2FE
:105630000D9B79189A188368B2189C4609B212B269
:10564000281C0C9BE0470DE0079A139B11B21BB27C
:105650000C9A039323B200930192C269281C9446CA
:10566000039AE0470699079A4B00DBB20693131999
:105670009BB201370793BFB2BDE7059A01365318B5
:10568000DBB20593B6B2A6E715B0F0BD50F7000047
:10569000F0B5C26987B0041C0B1C002A2BD10A2963
:1056A00006D1037E418ADB005B18438202826BE0F5
:1056B0000D2969D0817E007E00290DD01025615F03
:1056C000062545434D190C26A15F8D4204DB618AF6
:1056D0002282C200521862821225625FA58A02905D
:1056E0000095E58A1027E15F0195201CFFF7ACFECD
:1056F000227E062344E00A2908D100230382927AFD
:10570000037E5343428A9B1843823DE00D293BD0E0
:10571000157AA94238D3517A994235D35D1BEDB23F
:105720005668ED00AD19A978E878002926D0002840
:1057300024D06F79A67E0597207E002E12D01027E8
:10574000E65FB446059E77B2791841430C27E65FC1
:105750006144B14206DB00212182927A618A424390
:10576000521862821022A15E1226A25FA68A0290BF
:105770000096E68A201C0196FFF766FE2A79237EB2
:105780005343228A9B182382012007B0F0BD018277
:1057900042827047C18281827047407E7047C369F0
:1057A000002904D0002B07D1438A063303E0002BE5
:1057B00002D0438A063B4382C16170470C23C05E1E
:1057C00070470E23C05E7047F8B5061C0D1C141CF4
:1057D0001F1C002900DA81E0FFF7F0FF854200DBA3
:1057E0007CE0002C00DA79E0301CFFF7EAFF84420D
:1057F00074DA301CFFF7D1FF022867D13389013BEF
:105800005D1B73892DB2013B1C1B24B206E00128ED
:1058100004D13389013B1B1B2C1C1DB2012F04D06A
:10582000002F1CD0022F36D058E0E3175B0F1B1956
:10583000DB101BB2DB01ED18294B761901361C4039
:1058400004D50823013C5B421C430134072324B2E6
:105850001C1B0123A3401C1CF37F1C4334E0E317F3
:105860005B0F1B19DB101BB2DB01ED181C4A76190C
:10587000731C144004D50822013C524214430134E5
:10588000072224B2141B0122A2400136141CF27F0D
:10589000A243DA7722E0E3175B0F1B19DB101BB280
:1058A000DB01ED180E4B761901361C4004D5082398
:1058B000013C5B421C430134072324B21C1B01231F
:1058C000A3401C1CF37F5C40F47707E003289ED1C3
:1058D0007389013B5B1B251C1CB29FE7F8BDC046CA
:1058E00007000080F7B51D1C08AB1B780F1C5BB2CE
:1058F000009309AB1B78161C5BB280214022041C6C
:105900000193FFF741FD094B009A0833236084237C
:10591000DB00E754064B201CE654064BE554064BCF
:10592000E254064B019AE254FEBDC04680FC0000E2
:1059300021040000220400002304000024040000CD
:1059400010B54CB2002C1ADB3F2A18D8D408E40159
:1059500009194018D2430130002B08D007231A4000
:10596000012393401A1CC37F1A43C27707E0072321
:105970001A40012393401A1CC37F9343C37710BD81
:1059800008B5802220300021D20007F0BDFE08BDFE
:10599000F0B587B01E1C0CAB1B78151C0DAA0C1C97
:1059A0001278591B0390C81709180492321B414002
:1059B000D01712184240914208DD321C01211E1CF2
:1059C000131C221C00912C1C151C01E000220092CB
:1059D000B44205D92A1C1D1C131C221C341C161C85
:1059E000321BD2B201925A1BD01712184240D2B2C7
:1059F00001990592FF224F0802929D421AD201237B
:105A0000029317E00098002817D00398291C221C45
:105A1000049BFFF795FF05997F1AFBB2DFB27AB2BC
:105A2000002A05DA029A0198AD181F18EDB2FFB2EC
:105A30000134E4B2B442E5D903E00398211C2A1CE6
:105A4000E6E707B0F0BDF0B585B002930AAB1B786E
:105A5000061C03930BAB1B780F1C151C01930C1C2D
:105A6000029ABB189C4211DA211C301C2A1C019B93
:105A7000FFF766FF039A211C013AAA18D2B2301C24
:105A8000019B0134FFF75CFFE4B2E9E72C1C039AA9
:105A9000AB189C4211DA221C301C391C019BFFF709
:105AA0004FFF0299221C01397918C9B2301C019BA1
:105AB0000134FFF745FFE4B2E9E705B0F0BDF0B50A
:105AC00085B001930AAB1B78009002930BAB1B7857
:105AD0000F1C161C03930D1C019ABB189D4210DA73
:105AE000341C029AB3189C4208DA221C0098291C24
:105AF000039B0134FFF724FFE4B2F2E70135EDB276
:105B0000EAE705B0F0BD0000F8B5051C0F1C07243E
:105B10000B4E0021A85700F0F7FB391C84222141CD
:105B20000123D2001940A856002900D0191C00F00A
:105B3000EBFBA857012100F0E7FB013CE8D2F8BDE0
:105B40002104000038B5064B0D1C041C0021C05672
:105B500000F0DAFB291C201CFFF7D6FF38BDC04639
:105B60002204000070B58423DB00041C0121C05610
:105B700000F02CFB304B0121E05600F027FB2F4BAF
:105B80002F4DE0562F4E012100F020FB60570121E0
:105B900000F01CFBA057012100F018FBA0570021CA
:105BA00000F0B2FB6057002100F0AEFBFA2040008D
:105BB00000F0CCF86057012100F0A6FB201C40212A
:105BC000FFF7C0FF201CA021FFF7BCFF201CC02155
:105BD000FFF7B8FF201CA621FFF7B4FF201CA2216D
:105BE000FFF7B0FF201C2F21FFF7ACFF201C27215F
:105BF000FFF7A8FF201CF821FFF7A4FF201C0021BD
:105C0000FFF7A0FF201C8121FFF79CFF201C002133
:105C1000FFF798FF201CAC21FFF794FF201C002108
:105C2000FFF790FF201CAF21FFF78CFF201CA42161
:105C3000FFF788FF70BDC046210400002204000069
:105C4000230400002404000038B5064B0D1C041C7E
:105C50000121C05600F058FB291C201CFFF754FFFF
:105C600038BDC04622040000F8B5041C0025114BC5
:105C7000201CE95CB0231943FFF764FF201C0021BE
:105C8000FFF760FF201C1021FFF75CFF201CE021C4
:105C9000FFF758FFEF01E7190026BB1920331978E9
:105CA000201C0136FFF7D0FF802EF6D10135082DDC
:105CB000DDD1F8BDB0FC000038B5134D1349281CE8
:105CC00000F036FC1249134800F032FC1249134828
:105CD00000F02EFC1249134800F02AFC1249134828
:105CE00000F026FC124C1349201C00F021FC291C5A
:105CF00024222323104800F0ABFD211C00220123A5
:105D00000E4800F0A5FD38BDA40A0020001C00428A
:105D1000000C0042A80A002000100042AC0A00203B
:105D200000140042A00A002000180042B00A00201F
:105D3000B40A002000080042E0090020400A0020C8
:105D4000014B18687047C046B80A002070B5041EA1
:105D500009D0054B1D681E1C00F010F83268631E48
:105D6000521B9A42F8D970BDB80A0020024B1A683B
:105D700001321A607047C046B80A00207047FEE73B
:105D800008B5034B1B68002B00D0984708BDC046E0
:105D9000BC0A00204449082330B50B604349444AFB
:105DA0000B60802109059160916142491E2248687B
:105DB00090430222104348603F49886903438B6146
:105DC0003E483F4B9882988A02439A82DA6890074D
:105DD000FCD53C4A012010701078C40704D539481E
:105DE000407840B20028F7DB01209060507840B244
:105DF0000028FBDB344C33484460507840B2002824
:105E0000FBDB82242F48E4014480507840B2002814
:105E1000FBDB988C8024A0439884D868C506FCD509
:105E20002A4C2748C462DC682548E506FBD5848CEB
:105E3000274D2C438484DC682148E506FBD5848CFF
:105E400002252C438484D8680406FCD51C48C0680D
:105E50004506F8D5D868C406FCD500209060507877
:105E600040B20028FBDB1B4C1648446054781548B0
:105E700064B2002CFADB1D6A174C2C401C621C6AB1
:105E80008025AC431C6203238360144B436053782A
:105E90005BB2002BFBDB00230B72114A4B728B723F
:105EA000CB72104B1A6030BD8844004198440041C9
:105EB0000044004100400041000400400C06000086
:105EC00000080040000C004001050100B805FF7DFE
:105ED000040A000000070300FFFCFFFF03060100A7
:105EE000006CDC02D802002038B51049104CA142E9
:105EF00006D107F0B7FBFFF74DFFFEF75FF90BE0A8
:105F00000C4D8D42F5D00023CA18E818A24204D2E5
:105F1000006804331060F7E7FEE79042E9D0064BD3
:105F2000064A9342E5D2002204C3F9E700000020AC
:105F3000CC030020641B0100CC0300209C11002036
:105F4000014B18607047C046BC0A0020274BFA215D
:105F5000186810B5890007F0CDFA254B0138984232
:105F60001DD8244B244A5860106AC0210002000A40
:105F7000090601431162002407229C601A601F4B2E
:105F8000FC211A6A0A431A62196AFF2212020A43A2
:105F90001A62196AA022D2020A431A6200E0FEE7DE
:105FA000201C0021013400F011F9132CF8D1144BFE
:105FB000144AA4215380144BC900998013491961D4
:105FC000112199703F21D97002215970187801432D
:105FD0001970597EC9090129FBD00D4B53800D4B17
:105FE00041225A700C4A1A8110BDC046D8020020C6
:105FF000FFFFFF0010E000E000ED00E000040040C3
:106000001E400000000C0040004000420018000F3D
:106010002140000000480042FF03000018234343D2
:10602000F7B55D4A061CD318DB680F1C980719D515
:10603000182E17D1594B1B680A2B06D002D90A3BE0
:10604000DF4002E00A22D31A9F40BB059A0D544B51
:1060500002211A811A780A431A70DA79D209012AC0
:10606000FBD098E008221340019300D188E0182368
:106070007343494AD318197A0B1F012B03D849B22D
:10608000301C00F0DFF818235E43434B9E191222A8
:10609000B05E072833D00EDC04282CD004DC0028A6
:1060A00029D0012829D033E0052826D006282FD171
:1060B0003C4C02252CE080239B00984224D009DC34
:1060C00080235B0098421DD00223FF3398421FD1EA
:1060D000354C1CE0C0239B00984207D0334B9842BC
:1060E00007D0334B984213D1324C10E000250123E6
:1060F0000FE00125FBE72B4C07E02A4C07E0294C79
:10610000032505E0284C00E02A4C002500E001258D
:106110000023001205280BD8274A07F0E1F90303F2
:1061200005050707254902E0254900E0254951807A
:106130000222002B14D0244B04201988ED1891431F
:10614000198019880143198019884020014319805A
:10615000F9B22976FF21197519880A431A801AE0C5
:106160002368103593432360E36BAD001343E3636F
:106170006519FF236F60236423681A4322600AE0D5
:10618000301C012100F022F8301C01217F2F00D8A3
:10619000019900F0B9F8F7BDB8FC0000DC0200205E
:1061A0000048004200200042002400420103000099
:1061B0000102000000280042000C00401A400000CC
:1061C0001B4000001C400000002C004218235843D4
:1061D0001A4A30B5131808241C5701342DD0012950
:1061E0001ED000290FD0022927D181565A68CB0131
:1061F000134906205B18991840310870012191401D
:106200005960996119E081560D485A68CB011B18F5
:1062100099184031022008700121914059600CE02A
:1062200080565A68C301064802251B18981840304A
:1062300004789140AC430470996030BDB8FC000014
:106240000044004118224243F8B52D4D0824AA18F5
:106250001457031C621C50D0481C00240C284CD836
:1062600007F03EF9071E1E1E1E1E1E1E1E0A0A0AEB
:106270000A000124644240E0092902D1181C0021CF
:1062800003E00A2904D1181C0221FFF79FFF23E035
:1062900000240B2931D1181C0121FFF797FF2CE0B6
:1062A00018225343EA185268EB560120141C04408C
:1062B0005508DB01002C11D0124C1B195D1930352B
:1062C0002E780C010F21314021439A18C9B2297050
:1062D000403213781843107000240EE0094E0F2747
:1062E0009B195D1930352E789A18BE433143C9B2D7
:1062F00029704032137818431070201CF8BDC04636
:10630000B8FC000000440041182358430F4A30B540
:10631000131808241C57013417D080560C4C5B68A6
:10632000C0010219D418403404252570002903D077
:10633000012908D0012106E001229A40131C054AD8
:106340008018436001E09940916130BDB8FC0000C5
:10635000004400411044004118235843084A0821D2
:1063600013185956013109D082560649D2015218E4
:106370005B68106AD8400123184000E00020704795
:10638000B8FC000000440041F8B5061C0C1C8F1836
:106390000025BC4207D0336821781B68301C984721
:1063A00001342D18F5E7281CF8BD38B5051C0C1C68
:1063B000081E07D007F0FCFA2B68021C5B68281C3B
:1063C000211C984738BD08B5FFF7EFFF08BD08B599
:1063D00003681B68984708BD08B50249FFF7E5FF49
:1063E00008BDC0463801010038B5041CFFF7DDFFC9
:1063F000051C201CFFF7F0FF281838BDF0B58BB046
:10640000151C09AB0022071C0E1C1A70012D00D8A8
:106410000A256C462334301C291C07F06BF8031C3A
:106420006B43F61AF6B2211C092E01D8303600E073
:106430003736F6B22670013C002801D0061CEAE788
:10644000381CFFF7B2FF0BB0F0BDF8B5041C0D1CF3
:10645000161E04D10368C9B21B68984712E00A2AC5
:106460000DD100290ADA2D21FFF7B1FF6942071C7F
:10647000321C201CFFF7C2FFC01903E000E0D2B2BB
:10648000FFF7BCFFF8BD08B5FFF7DFFF08BD08B593
:10649000002A04D10368C9B21B68984702E0D2B24F
:1064A000FFF7ACFF08BD08B5FFF7F1FF08BD10B559
:1064B00000214022041C07F027F90023201C23643C
:1064C000636410BD026C10B53F23541C2340446C20
:1064D000A34201D08154036410BD002303644364CC
:1064E0007047436C026C934206D0C25C3F2101337B
:1064F0000B404364101C01E0012040427047026CD5
:10650000436CD01A00D540307047436C026C934204
:1065100001D0C05C01E0012040427047026C3F2383
:1065200001321A40436CD01A43425841C0B27047FE
:1065300001607047F7B508AC267804689D1E27688F
:106540006C1EA541ECB2920705683A4327063A4310
:106550002A600268072529405068B501002C00D048
:106560005C03294301430C435460F7BD30B5036815
:10657000C0251C68AD0312052A402243C024A40292
:10658000090421401143196003685A6814435C6090
:1065900030BD036801211A680A431A600268116855
:1065A00001231942FBD1D1691942F8D17047036820
:1065B00002211A680A431A600268D3699907FCD459
:1065C00070470268137E9907FCD570470368002264
:1065D0005A8370470368187E4007C00F70470368EE
:1065E000588B4007C00F70470368588B8007C00F57
:1065F00070470368588B0123184070470368188D53
:10660000C0B2704703681A7E01200242FBD0198590
:1066100070470368802219685968D2020A435A6099
:10662000704700000368034A196859680A405A60B5
:106630007047C046FFFFFBFF30B5036803241D68A9
:106640000C40074A596824040A40ED0622436D0FA6
:106650005A60052D03D10268D3695907FCD430BDB7
:10666000FFFFFCFF03682833197003681A7E510787
:10667000FCD55B8B01209B08984370470368186822
:10668000C006400F053843425841C0B27047036806
:106690001868C006400F043843425841C0B27047E2
:1066A0000368187E4007C00F70470368187E0123F7
:1066B000184070470368588BC006C00F70470368C6
:1066C000187E8007C00F70470368588B0007C00F03
:1066D000704703681A68D206520F052A02D11A7E43
:1066E0009107FCD528331878C0B270470368224A56
:1066F00030B5934211D0214A934211D0204A93429F
:1067000011D0204A934211D01F4A934211D01F4A00
:10671000934230D10E2319220DE0092314220AE0FE
:106720000A23152207E00B23162204E00C2317226C
:1067300001E00D231822DCB2154901209B08A0407E
:106740009B0008605B180320C021890004405D584D
:10675000E000FF248440A5432C1CC0258540281C54
:10676000204358508023DB011A430A4B5A805A7841
:1067700052B2002AFBDB30BD00080042000C004290
:10678000001000420014004200180042001C0042A9
:1067900000E100E0000C0040F8B5041C151C0E1CC4
:1067A0001F1CFFF7A3FF201CFFF7F3FEB1001C2204
:1067B0000A4069072368090C0A431A602268842387
:1067C0009375012E1AD10821012D00D110210C4BF7
:1067D00079431868C00006F08DFE236807219A8966
:1067E0000140D2044903D20C0A439A812368000471
:1067F000C20C9889400B400310439881F8BDC046F5
:10680000D80200200120704710B5041C0069FFF772
:10681000C0FE201C1430FFF760FE10BD08B50069F3
:10682000FFF7CFFE08BD08B51430FFF768FE08BDBE
:1068300008B51430FFF769FE08BD08B51430FFF73E
:1068400050FE08BD08B50069FFF7DCFE012008BD59
:10685000F8B51D1C00234360FA239B008360084B9E
:10686000041C0833036014300F1C161CFFF71FFEB6
:10687000231C5C332761201C1E705D70F8BDC04670
:106880004801010010B5041C0069FFF7A3FE0028B1
:1068900007D02069FFF7B2FE011C201C1430FFF75F
:1068A00011FE2069FFF79BFE002809D12069FFF740
:1068B0009BFE002804D12069FFF79BFE002802D030
:1068C0002069FFF783FE10BD0F23081C9843303862
:1068D000434258417047002070470F231940012957
:1068E00005D002394B424B410220C01A00E0002083
:1068F00070470000F0B5031C85B003915C33041CA5
:10690000182718783B1C43431A4E0821F318595690
:10691000151CFFF797FC231C5D33187808214743AB
:10692000F6197156FFF78EFC01210A1C039B2069A2
:10693000FFF732FF291C201CFFF7CDFF291C071C85
:10694000201CFFF7CAFF291C061C201CFFF7BCFFF8
:10695000331C0090391C20690122FFF7EBFD2069F0
:1069600001210322FFF702FE2069FFF720FE05B098
:10697000F0BDC046B8FC000008B51322FFF7BAFF0F
:1069800008BD000008B50248FFF77CFF08BDC046FF
:10699000400A002008B50248FFF774FF08BDC04652
:1069A000E0090020094B1A1CFC32506891681A1C3F
:1069B000884206D1FF335B7A002B02D1012040428E
:1069C00003E0131CFC339B68D05C7047C00A0020B6
:1069D00013B502686B46D97107335468191C01223C
:1069E000A04716BDF0B58022C1B069465200022012
:1069F00000F0A4FCEFF3108501231D40AC4672B6F5
:106A0000104A0021131CFC335B68814212D0141C15
:106A1000FF34667A002E0DD16D466F5C5E1CD75434
:106A2000F3B2161CFC36B668B34201D10126667279
:106A30000131EAE7FC3253606346002B00D162B6B5
:106A400041B0F0BDC00A002038B5184C051C231C0D
:106A5000FC335A689B689A420DD1231CFF335B7A42
:106A6000002B08D1022000F041FC002803D02B6845
:106A7000281C9B699847231CFC335A689B689A42E0
:106A800007D1231CFF335B7A002B02D10120404247
:106A90000AE0231CFC339A68A05C9A68FF34013238
:106AA000D2B29A600023637238BDC046C00A00208B
:106AB00008B5032000F0B6FB08BD00000C4B1A1C03
:106AC000FF32527A002A10D11A1CFC3251689268A7
:106AD000914204D14A2207490120FF328854FC33F5
:106AE00058689B68C01AC0B201E08020400070471F
:106AF000C00A00200050004110B5074B041CDB7990
:106B0000002B04D0032000F0E7F8002801D0012377
:106B10006360002010BDC0462803002008B503783C
:106B2000422102330370024800F04EF908BDC0460E
:106B3000E402002010B50178031C42780020A1294E
:106B400007D1212A2DD11748072100F03DF9012056
:106B500027E0212925D1202A04D10721114800F05E
:106B6000A7FB04E0222A10D19A780E4BDA710D4B64
:106B700096221968D200914210D1DC7901231C4081
:106B80000CD1FA2000F05CFD0AE0232A09D1DA7862
:106B90009B7812021A43044B1A6002E000F05AFD7F
:106BA000002010BD28030020E002002070470000F4
:106BB000054B00225A60FA2292009A60034A08327A
:106BC0001A60034A1A617047CC0B0020780101005B
:106BD0006C10002070B5C2B219495301CB189E68E1
:106BE000184DC0242E40A40526439E60164E8001F9
:106BF00009683018083258605201505C0726B043CB
:106C00000126304350549E6935402C439C610F4C03
:106C10005C61505C7024A0431024204350549C6855
:106C20000B488A18204080246403204398609868A9
:106C30004021800B8003986053790B43537170BDE2
:106C400074100020FFFFFF8FA80E0020E80C00202A
:106C5000FF3F00F038B5041C08CC01211A78051C50
:106C60000A431A708022201C0021520006F04CFDBD
:106C70002B689A78D107FCD45C6238BD134BF0B511
:106C80001B6899035A029B01C90ED20E5B0F1F2984
:106C900000D105211F2A00D11D22072B00D103237B
:106CA00004688E01278D0A491F253940314321850B
:106CB00001682A400C8DAC4322430A8502681903FF
:106CC000108D044B03400B431385F0BD24608000FE
:106CD0003FF8FFFFFF8FFFFFF0B5264B85B01B6825
:106CE000071C0E1C141C002B40D08023DB019A4291
:106CF0003CD88022204B12055A61002C34D0251E2E
:106D00003F2D00D940251D4ABB01D318181C311C4A
:106D10002A1C039306F0EFFCF9B2194A03984B01C1
:106D2000D3185861A804800C039002919969880BCC
:106D300003998003014399610299126808314B015C
:106D4000D3180220D87101925A79802003924242CE
:106D5000039810435871019A4B01D318DB799807B7
:106D6000F9D5641B7619C8E7201C01E001204042D8
:106D700005B0F0BD7811002000440041E80C00206F
:106D80007410002070B50D4D8301ED18061C281CF1
:106D9000141CF6B206F0AFFC094B76019B195D613D
:106DA0009969084A201C0A409A619A69A104920BC9
:106DB000890C92030A439A6170BDC046E80C00201A
:106DC00074100020FF3F00F0F8B5114B071C1B7832
:106DD0000C1C002B1AD10F4B1E78002E01D10D1C5C
:106DE0000AE00D4D0D482E88391C8019221C3619D9
:106DF00006F081FC2E8009E0002D07D0B9192A1C6D
:106E00000020FFF7BFFF36182D1AF5E7201CF8BD4C
:106E10006B10002069100020E40C0020E40B00201F
:106E200008B5044B00221A70034B04481988FFF779
:106E3000CBFF08BD69100020E40C0020E40B00200B
:106E4000F8B5051C00AF012920D94B085B000833B9
:106E5000DB086A46DB00D21A954668460122AB1869
:106E6000013B1C785300002C0AD1C02292001A4327
:106E7000191C0280FFF7A8FF431E9841C0B206E02C
:106E8000DEB2B142F1D0C4520132E8E70020BD4683
:106E9000F8BD37B500236C46E3710734051C201C90
:106EA000FFF73CFE2B681818286020783EBD0000D4
:106EB000F0B51D4B87B000250090012702A81F7078
:106EC0000295FFF7E6FF03AC09260190291C201C60
:106ED000321C06F019FC022363708023E371FA234D
:106EE0002372029B26709B196380019B677123713B
:106EF0000D4B1D70009BB34204D1201C191CFFF7E1
:106F000063FF0DE0094B311C1F70094B201C1D80D5
:106F10000295FFF759FF02A8FFF7BBFFFFF780FFBD
:106F2000012007B0F0BDC0466B10002069100020A2
:106F3000E40C002008B5C278031C022A06D1C088E0
:106F4000FFF7B6FF431E9841C0B225E0012A04D1E5
:106F5000C188124811291BD817E00020032A1BD131
:106F60009A78824205D10E48D98803788B420CD892
:106F70000EE0022A02D199790A4803E0012A0BD1D6
:106F800099790948FFF75CFF06E0C9B2002900D1F2
:106F90000178FFF719FF012008BDC046B0010100CC
:106FA000A0010100C2010100A401010038B583293C
:106FB00016D1C2B230495301CB189D692F4C8001C4
:106FC0002C40C025AD052C439C612D4C0832201867
:106FD00058610B685201D15C70208143402043E02E
:106FE000022923D1C1B2244A4B01D3189D68234CF6
:106FF00080012C40C025AD052C439C60214C1268BB
:107000002018083158604901885C0724A0430324F4
:107010002043885499681C4A0A40802149030A4346
:107020009A609A68920B92039A6024E082291ED19A
:10703000C2B211495301CB189D69104C80012C40FC
:10704000C025AD052C439C610D4C083220185861B9
:107050000B68520199180C79802040422043087136
:10706000D15C7020814330200143D15403E00029DA
:1070700001D1FFF7AFFD38BD74100020FFFFFF8F77
:10708000E80C0020A80E0020FF3F00F00F4B9A698B
:10709000920B92039A611B680222FF331A7299794C
:1070A000802252420A439A711A7A9107FCD5084B02
:1070B000011C987A7F221140904308439872997A74
:1070C000802252420A439A727047C04674100020D0
:1070D0000050004110B50124054BA200D1580029F1
:1070E00005D0201C0134FFF761FFE4B2F4E710BDC6
:1070F0003003002037B5041C40780B2871D806F007
:10710000EFF9081A7026703B3F064346626800207C
:1071100068E0207801A9002802D10870487008E0D2
:1071200000230B704B70304B1B78012B00D10B7080
:10713000002002224AE0A2780023012A04D101A9FA
:107140000B704B70294BEFE7274A137044E0A5788A
:10715000012D06D1254B01A900201D7008702A1CA5
:1071600034E0002D08D1204B01201870204B9A6983
:10717000920B92039A6135E0A078FFF787FF30E029
:10718000201CFFF7D7FE2DE000201A491DE02378D0
:107190000020DA0626D1FFF79DFFA278154B2A21A1
:1071A0001A60134AFF3113680224585C2043585474
:1071B0004A21FF315C5C012004435C5493699B0BC2
:1071C0009B0393610EE00C4900200122FFF7DAFDDA
:1071D00007E0A278084B1A60054B9A69920B92035C
:1071E0009A6101203EBDC046681000206A10002050
:1071F00074100020781100207010002008B502796A
:1072000000239A4209D1FFF795FC031E05D1044BD8
:107210009A69920B92039A610123181C08BDC0461B
:1072200074100020C3B2094A5901511889688904B1
:107230000AD0106808335B01C018427980235B4292
:10724000134343710223C3717047C046741000207A
:1072500070B5C2B2134B14495401800118180B19B0
:1072600058609D681148083228408025AD022843A7
:10727000986098684026800B800398600B685001E6
:10728000181805793543057150011818807945069D
:10729000FAD550011818C079C507FAD50C19A0689D
:1072A000C0B270BDA80E002074100020FF3F00F097
:1072B00038B50C4B0C1C1B684021FF335A79051C58
:1072C0000A435A710020FFF7C3FFA04200D9201CD7
:1072D0000023A34204D0044A9A5CEA540133F8E73D
:1072E00038BDC04674100020A80E0020034BC0B269
:1072F0004001181880688004800C704774100020CA
:1073000010B5C0B20C4940010B189A689204920C57
:107310003F2A08D9141C9A68403CA404920BA40C80
:107320009203224302E09A68920B92039A60081833
:107330008068C0B210BDC04674100020F7B5214B64
:10734000071C1B680191141C002B35D01E4B082212
:10735000C5B21E4E1A606B01F3189A689204920C23
:10736000A24202D29C68A404A40C381CFFF7C8FFF8
:10737000326869015318FF335A7A009101210A4398
:107380001349BF015A72C9190198221C06F0B3F9BA
:107390000020844214D0009AB3189B689B04834257
:1073A0000DD1336808356D015D192B7940221343E7
:1073B0002B710123EB7102E00120404200E0201C10
:1073C000FEBDC04678110020944400417410002096
:1073D000A80E002038B5264B2021DA69051C0A4387
:1073E000DA61244B01201A78062402431A70224BDA
:1073F0000F221978914319701978214319701F4988
:107400000C782043087019780A401A701A786021A5
:107410000A431A701A4B1B4A5A805A78D209FCD177
:107420001948FEF78DFD194C201CFFF713FC201C9A
:10743000FFF724FC23687F2219780A401A701A7813
:1074400004210A431A701A890C218A431A81C12126
:107450000F4A890050580002000A505080211160E4
:107460001A7802210A431A7001232B7038BDC046D6
:1074700000040040584400413C440041594400414C
:10748000000C004006400000397600007410002017
:1074900000E100E00078002810D0094B01211B68B2
:1074A0001A898A431A811A8B08210A431A831A8B74
:1074B00004210A431A83034B00221A607047C04616
:1074C0007410002078110020014A024B1A607047A6
:1074D000005000417410002008B5022807D1134B5A
:1074E0009B6C9B0420D01248FFF77CFA1CE0032819
:1074F0000BD10E4BB2221B685200985C802149428E
:1075000001439954022168220CE001280CD1074B59
:1075100092221B685200985C802149420143995491
:1075200002212822FF32995408BDC0467410002061
:10753000CC0B0020394B70B51C78002C6CD1384D29
:1075400029688B8B1A070DD5201CFFF743FB2B688E
:1075500010201A1CFF32917A01439172314A146053
:1075600008229A832B689A8B510701D504229A83AB
:10757000FF331A7AD10625D510221A725A79402182
:107580000A4329485A71027860231A4202D1FFF750
:10759000B1FD01E0FFF732FE002806D02B68802203
:1075A000FF33997952420A4301E0204B20229A711D
:1075B0002B68FF331A7A510604D540221A72597A81
:1075C0000A435A721A4B802212059A61194B0822FB
:1075D0001A602A68FE23168C00241E40E0B2002E9A
:1075E0001AD0321C012322411A420ED0221C2968D3
:1075F000083252018A18D17919420AD1D279DA4077
:107600001A4206D10123A3409E430134092CE5D13F
:1076100002E0FFF761FFF5E770BDC046691000208A
:107620007410002078110020A80E0020FF500041A7
:10763000004400419844004108B5FFF77BFF08BDB6
:1076400008B5024B1860024B9847C0464003002023
:10765000491B0100024B012252421A607047C0468A
:107660004003002008B500F00FF808BD08B500F091
:107670001DF808BD08B503491B22022006F006FBD1
:1076800000F00CF8D801010008B5002801D006F080
:1076900019F808BD08B5804705F07CFF08B5024B16
:1076A0001868FFF7F7FFC0464403002010B5041E1A
:1076B00002D1012400E09847201C05F0F9FF0028C2
:1076C00005D1034B1B68002BF5D105F063FF10BDFE
:1076D0007C110020214B73B51D78214C002D03D067
:1076E00023682048D96835E001221A7005F0E4FECD
:1076F00000282CD04368291C1E782A3E724256412D
:107700009E1901235B422A1C0193301C01AB05F03A
:107710005FFE2368051CD968134805F097FF019B9D
:10772000002B03D12368281CD96802E02368301C91
:10773000D96805F08BFF23680C48D96805F086FFEF
:10774000019B002B08D1281C05F0BCFF04E0236836
:107750000748D96805F07AFF05F01CFF801100206A
:10776000A80300201302010031020100620201009F
:1077700065020100F0B54B291DD8104D8C002C5925
:10778000A746002A17D0456984690026A5420CDA6D
:107790006C0064190769A40001353C194561002C8F
:1077A00003D021706260A360261C301CF0BD002A4B
:1077B00001D0002BE7D10026F7E7C0469402010074
:1077C00030B543698469A3420CDA5C00E4180569AA
:1077D000A40001332C194361002C03D0002901D0EF
:1077E000002A01D1002030BD002323706160A26017
:1077F000201CF8E7F8B5041CC0680F1C161C0378A1
:107800000D1C17E0562B2AD04B2B2FD10130E060F6
:107810001B21002E00D01E21236B201C0633236366
:1078200000220023FFF7A6FF2860002815D0051DC1
:10783000E0680378722BE5D10130E0601921002E59
:1078400000D01C21236B201C09332363002200235A
:10785000FFF790FF28600028E9D10020F8BD013033
:10786000E0601A21002EEDD01D21EBE7281C002E30
:10787000F4D1462BF2D1BD4211D01D201E211C2275
:1078800007E01B2B0DD0192B00D13A700437BD42F5
:1078900009D03F683B781A2BF3D13870F6E7381CD3
:1078A000DCE73970F2E7281CD8E7C04608B5031CAE
:1078B000C0680A1C017852290FD04F2901D0101C32
:1078C00008BD196B0331196320210130D860181CE1
:1078D0000023FFF74FFF021CF1E7196B0231196318
:1078E0001F21F2E7F8B50F1CC168061C0C780B1CB1
:1078F0002E2C22D02E2C12D15C78303C092C0ED8A4
:107900009C789A1C231C303B092B14D8131C013380
:107910001C78251C303D092DF9D92E2CECD05A1A93
:10792000F360301CFFF74CFF3A1C031C4B21301C4A
:10793000FFF720FFF8BD131CDCE74B781A1C613AF7
:10794000192A09D88B1C1C78221C613A192A01D9E2
:107950005F2CCFD10133F6E75F2BF3D00B1C2E2425
:10796000C8E7C046F0B54F464646C0B4C3681A786B
:10797000532A04D000200CBC90469946F0BD5A1CF6
:10798000C2605A78002A0FD09A1CC2605B7800222D
:107990005F2B1BD1016A8A42ECD2836A92000133C9
:1079A0008362C369D058E6E7002382680125120785
:1079B00002D40025002936D1414A141CC434117860
:1079C000994238D01C32A242F9D1D3E71C1C303C7A
:1079D000E2B2092A6ED8002213E0D100891889008A
:1079E000CB18191C30398A42C4D8C3681A78002AC7
:1079F00015D05A1CC2601B785F2B12D01C1C0A1CAD
:107A0000303CE1B20929E8D9191C41391929B1D80A
:107A1000D10089188900CB18191C3739E3E70023F6
:107A2000ECE74A1CB6E7C46801212278433AD2B297
:107A300091426D41C0E75669002E38D0976943697D
:107A400084690021BC468846A34210DA5900C9184F
:107A5000076989008946391C01334944436100297B
:107A600005D018274E6066460F708E6088464746E0
:107A7000C762002D18D0D5681169066B72180263B1
:107A8000A34200DB76E75A00D2180769920001335F
:107A9000BA1843610020002A00D16CE71823137044
:107AA00055609160101C66E755689168E5E7846948
:107AB0004369DEE71A1C413A192A8CD975E7C0469A
:107AC0007C0B010038B580235B00C358041C0D1CDF
:107AD000FF2B08D0591C80225200A150E55482236C
:107AE0005B00E55438BD0022C25486235B00C258B7
:107AF00084235B00C358FF21984790235B00E25822
:107B000001210132E2500023E5E7C04630B50368A9
:107B1000041C1A7800256E2A17D0131C303B092B41
:107B200018D82368002001338100091849008A18F9
:107B30002360101C1A783038111C303901330929A0
:107B4000F2D9002D00D0404230BD5A1C02605A7854
:107B50000125E2E70020F4E74369826910B593420A
:107B600010DA5C00E4180269A400013314194361BF
:107B7000002C07D0402323700C30FFF7C7FF606054
:107B8000201C10BD0020FCE710B5C368041C1A7847
:107B90005F2A0CD06E2A07D00C30FFF7B7FFE368DE
:107BA00001301A785F2A03D00120404210BD002026
:107BB0000133E360FAE7C04610B5C368041C1A78C5
:107BC000542A01D0002010BD0133C360FFF7DCFF51
:107BD000011EF7DBA36A6269A0690133A3628242D6
:107BE000F0DA53009B1820699B00C31801326261D0
:107BF0000020002BE7D005221A705960181CE2E71C
:107C000008B5C268012311785F2901D0181C08BD8E
:107C10000132C2600C30FFF779FFC343DB0FF5E799
:107C200070B5041C0C30FFF771FF051E33DDE668EC
:107C30006268931B984230DCA2683318E3605207F5
:107C400016D4092D0DDD301C1549082205F044FD20
:107C5000002806D1337A2E2B10D05F2B0ED0242B88
:107C60000CD0201C311C2A1CFFF7AAFDE06270BD5D
:107C70001A78242AE5D10133E360E2E7737A4E2BC8
:107C8000EFD1236B201C16335D1B2563054915229C
:107C9000FFF796FDEAE70020E9E70020E6E7C046A7
:107CA000B4120100C012010038B5041C002908D12B
:107CB000C3681A78002A01D1002038BD5A1CC2605E
:107CC0001978682910D07629F6D1251C0C35281C86
:107CD000FFF71CFFE3681A785F2AEDD10133E360F8
:107CE000281CFFF713FF03E0201C0C30FFF70EFFEA
:107CF000E36800201A785F2ADFD10133E3600120B6
:107D0000DBE7C04688235B00C358002B1AD05B68B2
:107D10000A689B68002B0ED019782F290BD1002AF6
:107D200005DC0AE019782F2905D1002A08D09B68C4
:107D3000013A002BF6D1002070470020002AFBD129
:107D40005868F9E78C2301225B00C2500020F3E75A
:107D500070B5061C0C1E0FD00D4D23784A2B02D88F
:107D60009B00EB589F46301C6168FFF7F1FF00282D
:107D700003D1A468002CF0D1002070BD211D301C5F
:107D8000FFF7C0FF0028F7D003782F2BF5D0F3E7DB
:107D9000C4030100F0B553689468013347465B188B
:107DA00080B40E1C071C151CA34214D8EC68002CD0
:107DB00002D004BC9046F0BD2B686A68391C981844
:107DC000321C05F098FC2A6893196A689C546B6809
:107DD0009E196E60EDE7D268002AEAD1002C02D12C
:107DE0000224022B02D96400A342FCD82868211C7B
:107DF00005F048FD8046002803D042462A60AC606A
:107E0000D4E7286805F05EFC43462B606B60AB60EE
:107E10000123EB60CDE7C046F8B5C368051C1A78AE
:107E20004C2A01D00020F8BD5A1CC26059785F2945
:107E300036D05A290CD10132EA60281C002100F00A
:107E400073FDEA681378452BECD10132EA60EAE76A
:107E500000F000FA061EE5D00378272B2FD0E96842
:107E60003B270B786E2B24D0452B31D0002BD9D05B
:107E70004B1C02E00133002CD4D0EB601C78452C65
:107E8000F8D15A1A281CFFF79BFC321C031C391C22
:107E9000281CFFF76FFCEA681378452BC2D1D4E7A2
:107EA0009A1CC2609B785A2BC5D00020452BB9D1B3
:107EB000CBE74A1CEA604B783C27111CD4E74368A7
:107EC0001A7C002ACBD05B682A6BD31A2B63C6E7D7
:107ED0000022D7E770B5C16882B00B78041C493B1B
:107EE000C66A012B2DD84A1CC2604B78452B3ED068
:107EF0000021019101AD16E0493B012B28D8201C3F
:107F0000FFF7E8FF021C002A1BD0201C2F210023B2
:107F1000FFF730FC2860002813D0E268051C1378B6
:107F20000835452B1ED04C2B17D0E5D9582B0FD137
:107F30000132E260201C01F0A3F8E36819784529BA
:107F400002D0002002B070BD0133E360021CDAE70A
:107F5000201C00F07FF9021CD5E7201CFFF75CFF16
:107F6000021CD0E70132E260E6620198EAE70231E2
:107F7000C16000222F210023FFF7FCFBE2E7C0468F
:107F8000F0B5474680B4C26882B01378051C4C3BFC
:107F9000DBB20E2B00D96CE0AB499B00CB589F465F
:107FA00001320021C26000F0BFFCEB68071C1978A9
:107FB000452900D1E0E000241AE05378742B00D169
:107FC00076E00021FFF7CEFCEA68061C1378041C5B
:107FD000492B0DD1281CFFF77DFF0421031C321C07
:107FE000281CFFF7C7FB041C02E000F007FF041C7D
:107FF000201C02B004BC9046F0BD0132C26001A951
:108000000122FFF7F7FB071ED5D0281C0021FFF740
:108010004DFCEB6880461C780026002C25D0442CB3
:1080200000D18FE0221C303A092A69D9313A192A45
:1080300066D9432C64D0552C62D04C2C60D0532C84
:1080400000D193E0492C00D188E0542C00D1C1E04C
:10805000452C00D1E4E04D2C07D1002E05D05A1C50
:10806000EA605C78131C002CD9D100233B6000240B
:10807000BEE7281C00F0C2FEEA68041C1378492BF6
:10808000B6D1002897D02B6A696A8B4200DB92E751
:10809000E9699A00013350502B62281CFFF71AFF40
:1080A000221C031C0421281CFFF764FB041C9FE70F
:1080B00002326649C2600322FFF782FB041C281CBF
:1080C00000F09CFE0121031C221C281CFFF752FB20
:1080D0002B6BE96803332B630B78061C041C492BBC
:1080E00000D085E7002800D165E72B6A6A6A9342D1
:1080F00000DB60E7E9699A00013350502B6269E7C1
:10810000281C00F07BFE031C002E19D00121321C1C
:10811000281CFFF72FFB061C532C0ED0EB681A7897
:10812000452A19D0002EA0D02B6A696A8B429CDAAE
:10813000E9699A00013356502B62EB681C786CE7B2
:108140001E1CE9E75B7820229343542BD8D1281CCE
:1081500000F080F8031CD7E7452463E7002E84D0A5
:10816000281CFFF7B7FE0421031CD0E7281C0121BF
:10817000FFF7F8FB031CC7E75A1CEA605A78732A1A
:108180003FD0642A2BD001267642281CFFF7F8FE48
:10819000041E04D00378442B01D0462B2AD1711C35
:1081A00026D06A69A96900238A420CDA53009B1819
:1081B00029699B000132CB186A61002B03D045224C
:1081C0001A709E605C60281C02213A1CFFF7D2FAEC
:1081D000041C0DE7281CFFF7EFFC031C94E7023397
:1081E000EB60281CFFF7D0FC061ECEDA0024FFE669
:1081F000231CE8E7281CFFF703FD0028CFD100244B
:10820000F6E60233EB60281CFFF7FAFC002800D1E9
:10821000D1E6281C0E490E22FFF7D2FA031CD2E742
:108220003E60002E00D1C6E64246002A02D0019BE5
:1082300001925360EB681A78452A00D0BBE60133FF
:10824000EB60019CD4E6C046F0040100E812010096
:10825000D8120100F0B5C26883B01378041C722BE9
:108260000CD0562B0AD04B2B08D0191C3039C9B270
:108270004A2937D8C048890041588F46201C01A997
:108280000022FFF7B7FA051E2CD0201CFFF7E2FFF3
:108290002860002826D002781F3A012A25D9019AA1
:1082A000002A1FD0236A656AAB421BDAE069990095
:1082B0000A5001332362019815E0201C00F0E0FE13
:1082C0004121021C0023201CFFF754FA01900028D2
:1082D00008D0E3681A78002A04D05A1CE2601B78A0
:1082E000452B1AD0002003B0F0BD019942684160CF
:1082F0002B6801932A60019A002AD3D1F2E7013258
:10830000E260201CFFF78CFC2821021C0023201CAB
:10831000FFF730FA01900028E4D0236A656AAB4287
:10832000E0DAE1699A005050013323620198DAE7FC
:10833000201CFFF725FE0190EDE7511CE16053780A
:108340005F2B00D12DE2303B092B00D93AE20A1C09
:108350000132E2601378303B092BF9D9521A201C04
:10836000FFF72EFA051E04D0E1680B785F2B00D1D1
:1083700018E200200190CEE70132E260201CFFF7F6
:1083800069FF2521021C0023201CFFF7F3F901904F
:10839000C1E7531CE3605378592B00D10FE2012150
:1083A000201C00F0A3FA011C201CFFF77FFAE368F1
:1083B000011C1A780020452ABDD10133081CE36056
:1083C0000190A8E70132E260201CFFF743FF26215D
:1083D000021C0023201CFFF7CDF901909BE7531CE2
:1083E000E3605378002B00D17CE7931CE360537863
:1083F000463BDBB2302B00D974E760499B00CB5879
:108400009F460132E260201CFFF724FF01AE071CEB
:10841000311C201C0122FFF7EDF9051EA9D0201CFC
:10842000FFF718FF28600028A3D0B54213D00178C9
:108430000A1C1F3A012A00D8CCE129290BD0019A45
:10844000002A96D0236A616A8B4292DAE569990024
:1084500001334A512362201C2B213A1C019BFFF758
:1084600089F9019057E70132E260201CFFF7F2FE24
:108470002221021C0023201CFFF77CF901904AE70F
:108480000132E260201CFFF7E5FE2321021C0023DD
:10849000201CFFF76FF901903DE70132E260201CDC
:1084A000FFF7D8FE2421021C0023201CFFF762F9ED
:1084B000019030E753781A1C303A092A05D95F2B0E
:1084C00003D0413B192B00D990E1201C0021FFF77C
:1084D00049FA051C0190E0680378281C492B00D05C
:1084E00001E7201CFFF7F6FC0421031C2A1C201CBA
:1084F000FFF740F901900EE7201CFFF75DFBE168F4
:1085000001900B78492B00D005E7002800D1E9E65F
:10851000236A626A934200DBE4E6E5699A005051FF
:1085200001332362019DDCE70132E260201CFFF78A
:1085300077FB0190201CFFF78DFE2121021C019B7F
:10854000201CFFF717F90190E5E6613B9900CB1875
:108550000B499B004431C918A5696369AB4200DA35
:1085600012E10023596800204B68216B0132CB18BF
:108570002363E260B7E6C0462C05010058060100FF
:10858000FC0B01006369A069834200DB2AE158000B
:10859000C01821698000013308186361002800D1E8
:1085A00058E127230370AC22AB4B92009B18436029
:1085B0005B68256BEB18236395E66369A0698342CA
:1085C00000DB0FE15800C018216980000133081852
:1085D0006361002800D13DE127230370A2229E4B56
:1085E00092009B184360E3E793785F2B00D124E16E
:1085F000201CFFF7B1FA051C002D00D1B9E6E36895
:1086000000201A785F2A00D095E60133E360201C31
:10861000FFF720FE2D21031C2A1C201CFFF7AAF8BF
:10862000019078E66369A069834200DBDAE05800D4
:10863000C01821698000013308186361002800D147
:1086400008E127230370A722834B92009B18436005
:10865000AEE76369A269934200DBD3E05800C0181B
:1086600025698000013328186361002800D1EDE0FE
:10867000272303709821784B89005B1843605B685F
:10868000226BD31823632EE6201C74490422FFF7C3
:1086900097F828E66369A0690025834206DA5D0041
:1086A000ED182169AD00013363614D192C2301954B
:1086B0002B7092780023303AD2B2092191425B416B
:1086C0009BB22B81002B00D0B1E0201CFFF7C2FD34
:1086D0006860019B5B68002B00D103E6201C0C3016
:1086E000FFF714FAE36800221978002906D05A1C13
:1086F000E2601A78733A53425A4192B20198428129
:10870000F1E56369A1698B4200DA7FE000235B68D1
:1087100000205B68216BCB182363E4E56369A569DE
:10872000AB425FDA5800C018216980000133081895
:108730006361002800D18DE0272303709D22464B02
:1087400092009B18436033E7201CFFF783FD49210B
:10875000021C0023201CFFF70DF80190DBE5636984
:10876000A26993424EDA5800C0182569800001338F
:1087700028186361002869D027230370B121364B84
:1087800089005B1843607AE75800C01825698000AB
:1087900001332818636100285AD0272303704160F1
:1087A000E2E600250131E160201CFFF753FD2A219C
:1087B000031C2A1C201CFEF7DDFF0190ABE50232F2
:1087C000E260ECE5201C00F05BFC051E00D0CBE570
:1087D0000020CFE5019B42684360286801902A6031
:1087E00011782AE600235B680020E1E6201CFFF7F1
:1087F000C7FB0190002800D174E50378182B00D046
:108800008BE570E500235B68002038E75800C0184E
:1088100022698000013310186361002814D02723D7
:10882000037093250C4BAD005B19436071E7201C6E
:108830000C30FFF76BF9019D47E70332E260201C23
:1088400000F01EFC051CD7E6436862E7436816E7A4
:10885000416889E64368ABE6FC0B0100EC120100BD
:1088600030B5002383B0C26801931378041C002B39
:108870002BD0452B29D02E2B27D001AD18E04F2B24
:1088800018D0201CFFF7E6FC021E1ED0201C2E2153
:108890000023FEF76FFF2860002816D0E268051C51
:1088A00013780835002B08D0452B06D02E2B04D08A
:1088B000522BE4D15378452BE3D10198002804D002
:1088C0008368002B03D003B030BD0020FBE7426873
:1088D00011782729F7D15268117C0929F3D1526800
:1088E000216B8A1A22634360EDE7C04638B5C3683E
:1088F000041C1A784A2A0DD0002500290CD1201C0E
:10890000FFF7AEFF031E0CD0201C29212A1CFEF706
:1089100031FF38BD0133C360201CFFF79BFC051EEF
:10892000EDD10020F5E7C046F8B546464F46C0B445
:10893000C368041C1A780E1C472A47D0542A45D015
:10894000FFF71EFB051E3FD0002E02D0A368DB07F9
:1089500022D5E0680378281C002B18D0281C452B52
:1089600015D02B1C1978CAB2042A58D005D31C394B
:10897000042902D85B68002BF4D10021201CFFF7EA
:10898000B5FF0321031C2A1C201CFEF7F3FE0CBCC0
:1089900090469946F8BD6D682B781A1C1C3A042A3B
:1089A000F9D9281C022BF2D1AB681A781C3A042A98
:1089B00004D85B681A781C3A042AFAD9AB60281CE0
:1089C000E5E7E3680233E3600020E0E7216B0A1C7F
:1089D000143222631A78542A11D0472AF4D15A1C2F
:1089E000E2605A78002AEFD09A1CE2605A78413A45
:1089F000D2B2312AE8D8BE4992008A5897465A1C0A
:108A0000E2605A78002ADFD09A1CE2605B78433B30
:108A1000DBB2332BD8D8B74A9B00D3589F465B684C
:108A2000002B09D0B4491A78332A05D892008A5805
:108A300097469B68002BF6D101219FE7201C0C3044
:108A4000FFF764F80128BFDDE3681A78002ABBD07D
:108A50005E1CE6601B785F2BB6D1471E3F220020CC
:108A6000804691463378002BAED0242B00D110E104
:108A70000025735D002B04D0242B02D00135BD42AC
:108A8000F7DB311C201C2A1CFEF79AFE031CE06851
:108A90007F1B4619E660002B96D04246002A00D183
:108AA00017E1201C3E21FEF765FE804600288BD092
:108AB000002FD7DC201C3D2142460023FEF75AFE42
:108AC00065E7201CFFF75CFA1321021C0023201C21
:108AD000FEF750FE5BE7201CFFF752FA051C201C36
:108AE000FFF73AF81621031C2A1C201CFEF742FE51
:108AF0004DE7201C0021FFF717FF1721021C002360
:108B0000201CFEF737FE42E79A78201C0021002A3D
:108B100000D1E0E0DA1CE2609B786E2B00D0DAE056
:108B2000FFF702FF4821021C0023201CFEF722FE53
:108B30002DE7201CFFF78EFB051C201C0C30FEF7D8
:108B4000E5FF002800DA3FE7E26811785F2900D0EE
:108B50003AE70132E260201CFFF77CFB236B021C2A
:108B600005332363201C0B212B1CFEF703FE0EE7AD
:108B7000201CFFF705FA1421021C0023201CFEF71D
:108B8000F9FD04E7201CFFF765FB0E21021C002302
:108B9000201CFEF7EFFDFAE6201C7621FFF784F893
:108BA000002800D110E7201C0021FFF7BDFE102196
:108BB000021C0023201CFEF7DDFDE8E6201C6821D6
:108BC000FFF772F8002800D1FEE6201C0021FFF715
:108BD000ABFE0F21021C0023201CFEF7CBFDD6E6C6
:108BE000201C0021FFF760F8002800D1ECE6201CD3
:108BF0000021FFF759F8002800D1E5E6201C0021EC
:108C0000FFF792FE1121021C0023201CFEF7B2FD8B
:108C1000BDE6201CFFF7B4F91521021C0023201C1F
:108C2000FEF7A8FDB3E60F312163201CFFF712FB0E
:108C30000921021C0023201CFEF79CFDA7E60A3137
:108C40002163201CFFF706FB0A21021C0023201CC5
:108C5000FEF790FD9BE6201CFFF7FCFA0D21021C9D
:108C60000023201CFEF786FD91E6201CFFF7F2FA98
:108C70001221021C0023201CFEF77CFD87E6201C2D
:108C8000FFF7E8FA0C21021C0023201CFEF772FDFE
:108C90007DE67378532B29D05F2B25D0242B00D071
:108CA00092E624216269A3699A4200DB89E65300B7
:108CB0009B1820699B000132C3186261002B00D110
:108CC0007FE65960E6684A4602361A70023FE6605F
:108CD000E3E69846ECE6FFF727FE4721021C002357
:108CE000201CFEF747FD52E62E21DBE72F21D9E7B6
:108CF0001C070100E4070100B4080100F8B54F4665
:108D00004646C0B4C36881461A78002A2DD05A1C42
:108D1000C2605A78002118788846002A04D09A1C2C
:108D20004C46E2605B789846762841D14446303C18
:108D3000E3B2092B1BD84D464846FEF771FF6B691D
:108D4000A9698B4228DA5A00D2182D6992000133A2
:108D50004946AA184B61002A1ED000281CD0322395
:108D6000906013705460101C17E000208046224A67
:108D70003D24171C00235837E21AD10F8A185210CD
:108D8000D2181601BE1935682978884209D0814267
:108D90000CD9141CA342EFD100200CBC904699467C
:108DA000F8BD6978884512D04145F2D8531CF1E7E7
:108DB0006328DCD14246762AD9D14846FFF74AFAE1
:108DC0003321021C00234846FEF7D4FCE5E74C465D
:108DD0006269A5690020AA42DFDA53009B18216965
:108DE0009B000132CB186261002BD6D031221A7061
:108DF0005E60181CD1E7C0467C0E0100F8B5C26861
:108E0000041C1378191C303909291FD9191C613920
:108E1000192933D9191C4339012900D86EE04C2B8C
:108E200000D19EE0552B00D0A6E053786C2B2FD0BC
:108E3000742B00D0A0E0531CC3605178742900D17A
:108E4000BCE00025422908D0281CF8BDFEF7E8FE4A
:108E5000E368051C19784229F6D10133E360201C30
:108E6000FEF7DEFE2A1C031C4A21201CFEF782FCB2
:108E7000E368051C1A78422AEFD0E5E7FFF73EFFCA
:108E8000051E02D00378312B78D0E3681978E2E729
:108E9000531CC36051786C29D3D10232C260FFF7F2
:108EA000DFFCE368061C19780028CAD04529C8D120
:108EB0000133E360201CFEF767FE002800DA98E02B
:108EC0006369A1698B4200DB93E05D00ED182269C4
:108ED000AD00013355196361002D00D189E04423B1
:108EE0006E60A8602B70676A236ABB4200DB80E07B
:108EF000E0699A00013315502362C6E7C06A002872
:108F000000D1A0E00578002D52D0191C182D00D1F9
:108F1000A1E0432977D0442972D15378312B00D175
:108F2000AAE000D891E0322B00D1A1E00426352B35
:108F300000D08EE06169A569931CE360A9425CDA08
:108F40004D006D182769AD0001317D196161002D5B
:108F500053D0002851D0082129702E71A860917833
:108F600079E70132C260FEF75BFE051E04D0201CCB
:108F7000FEF746FE002888D1002066E74368206B94
:108F8000996842180732226318683C4904F006FDCC
:108F9000002800D079E7201CFEF742FE3521031C93
:108FA0002A1C201CFEF7E6FBE368051C197852E733
:108FB000256B8768EB1923631178AAE70232C26038
:108FC000FEF7E2FD002814DB6369A1698B4210DA29
:108FD0005D00ED182269AD00013355196361002D64
:108FE00007D0462368602B70676A236ABB4200DAA9
:108FF0007EE7E368002519782DE7002591782AE7B8
:10900000131C002527E75378322B2FD029D9332B77
:1090100030D00426352B1CD16169A769931CE3600D
:10902000B942EADA4D006D182769AD0001317D19AA
:109030006161002DE1D00028DFD0072129702E7159
:10904000A860917807E7191C63E70126302B00D14F
:1090500070E70025F8E6216B85684B1923631178CA
:1090600057E70126312BD7D00025EDE60226D3E7BE
:1090700003265FE70326CFE702265BE7F412010031
:10908000F0B5474680B4C168041C0B784C2B00D166
:10909000E8E0542B00D1E9E0732B61D0662B31D08E
:1090A0001A1C303A092A0FD8201CFFF7A7FE002807
:1090B00000D1CEE0E268051C1378492B00D1EAE02C
:1090C000281C04BC9046F0BD6F2B00D1C3E0692B77
:1090D00000D1EBE0742B19D14B786C2B16D1201CEE
:1090E000FFF7B8F8E168051C0231E160201C45215A
:1090F00000F0BAF92A1C031C3021201CFEF73AFBB1
:10910000051CDDE74B78702B00D183E0201CFFF7B6
:10911000F5FD051E00D19CE00678312E00D1A9E0B6
:10912000322E2FD0332E00D093E000239846E368F0
:109130001A785F2A00D109E1201CFFF7A1FF031C68
:109140004146201C002905D037211A1CFEF712FBCE
:10915000031C201C2A1C3521FEF70CFB051CAFE765
:109160004B78722B00D1D8E0702BCFD10231C16087
:10917000FFF786FF4921021C0023201CFEF7FAFAA4
:10918000051C9DE743680027012B00D145E100DC69
:10919000E4E0022B00D18FE0032B5AD1381CAD49FB
:1091A00004F0FCFB002800D1E7E03B786E2B50D1A7
:1091B0007B78772B01D0612B4BD15F21201C00F0F5
:1091C00053F9061C201CFFF745F8E168071C0B78D3
:1091D000452B00D106E1702B00D112E1692B38D16B
:1091E0004B786C2B35D1201CFFF74AFF031C3A212A
:1091F0003A1C201CFEF7BEFA3921031C321C201C2D
:10920000FEF7B8FA2A1C031C3821201CFEF7B2FA1C
:10921000051C55E78B1CC3608B78542B00D191E063
:10922000FEF7B2FC0130002813D06269A3699A42AC
:109230000FDA53009B1821699B000132CB18626141
:109240000025002B00D13BE706221A7058601D1C38
:1092500036E7002534E74B786E2B00D056E7023115
:10926000C16021E7FEF7D8FD051C29E7FEF7A4FC45
:10927000051C25E74368226B1F6898469B68381CCD
:10928000023BD3182363744904F088FB002870D094
:109290004146CB6878E7201CFEF71CFE2A1C031C05
:1092A0000421201CFEF766FA051C09E74B786C2B9D
:1092B00000D02BE7002517E76B681B685A78632AF4
:1092C0006ED0201CFFF7DCFE8046381C634904F09A
:1092D00065FB00285ED0381C614904F05FFB002864
:1092E00005D0381C5F4904F059FB002875D1201CBB
:1092F000FFF784FDE268061C1378492B76D03721EE
:109300004246331C201CFEF735FA2A1C031C36216A
:10931000201CFEF72FFA051CD2E60231C160FEF7D1
:1093200099FF051C201CFFF769FDE268061C1178F7
:10933000201C492941D02A1C0121331CFEF71AFAAE
:10934000051CBDE60331C16000206EE70133E36018
:10935000201C452100F088F8031CF1E6002B00D00A
:1093600077E72A1C201C34210023FEF703FA051C92
:10937000A6E6201CFEF76EFFEAE6201CFFF780FE43
:10938000061C201CFFF77CFE071C201CFFF778FE44
:10939000031C2CE7201C452100F066F8061CAEE7F4
:1093A0001B781A1C633A012A02D9723B012B88D818
:1093B000201CFEF74FFF804687E7FEF78BFD042158
:1093C000031C321C201CFEF7D5F92A1C031C0121AA
:1093D000201CFEF7CFF9051C72E6201CFFF750FE9B
:1093E000061C8CE70131E160002300E7201CFEF73A
:1093F00071FD321C031C0421201CFEF7BBF9061C66
:109400007DE74B78692B00D023E70231E160201C17
:10941000452100F029F8031CE9E600229046974216
:1094200004D03B78702B05D06D2B03D0332E00D0A9
:1094300082E67CE67A78002188469A42F6D1E36893
:1094400001211A7888465F2AF0D101330022E360B7
:109450009046EBE704130100A0170100F812010089
:10946000FC1201000013010070B5002382B00193CB
:10947000C368041C1A780E1C01AD8A420ED119E093
:10948000201C2E210023FEF775F9286000280AD041
:10949000E368051C1A780835B24207D0201CFFF794
:1094A000EFFD021EECD1002002B070BD0133E3607D
:1094B0000198F9E70133C3602E2100220023FEF753
:1094C00059F9F1E7F0B5454657464E46E0B4041C5D
:1094D00082B0081C0D1C04F06BFA002830D000226A
:1094E0009246842252008023914686225B005200DD
:1094F000E3582F1890460BE0191C013380225200CC
:10950000A3508222520001356654A654BD4217D0A2
:109510002E78FF2BF0D15246E2544A46A2584346D9
:10952000E358009201931A1CFF21009B201C9847CE
:1095300090235B00E25800210132E2500123DDE775
:1095400002B01CBC90469946A246F0BDF0B54D460F
:1095500044465F465646F0B4DC4C1378A544699106
:10956000041C151C4B2B01D901F0ACFBD8499A0007
:109570008A5897468A235B00E35870938A2370AE1B
:109580005B00E6500023B36088235B00E3587560FE
:10959000F3606A68201C699902F0ECFDB368002B47
:1095A00004D1201C69992A1C02F0F4FD8A23709AC8
:1095B0005B00E25081239B009D443CBC9046994651
:1095C000A246AB46F0BD8A2252008658002E01D139
:1095D00002F011FD321C9768002F09D15068017804
:1095E000081C1938022806D88B4201D102F076F8FF
:1095F0001268002AEFD1331CBFE7AF686E68002FF6
:10960000D8D08422520080239246862252005B00EA
:10961000C358914600203A1C051C8346371C9046CF
:109620000BE0191C013380225200A3508222520009
:1096300001356654A654A845BCD07E5DFF2BF0D101
:1096400059464A46E154A2585346E358FF21201C8C
:109650003492984790235B00E25800210132E25097
:109660000123E0E78422520080239A4E5B001127F9
:1096700092468622C358BF1900205200B84683463E
:1096800091460DE0191C013380225200A350822222
:10969000520001366754A754464501D101F08AFBB8
:1096A0003778FF2BEED159464A46E154A25853462B
:1096B000E358FF21201C3A92984790235B00E25820
:1096C00000210132E2500123DEE784225200802390
:1096D000814E5B00192792468622C358BF1900208D
:1096E0005200B846834691460DE0191C0133802292
:1096F0005200A3508222520001366754A7544645B7
:1097000001D101F092FB3778FF2BEED159464A4642
:10971000E154A2585346E358FF21201C4092984739
:1097200090235B00E25800210132E2500123DEE782
:1097300084225200694E80231527934686225B00BF
:10974000BF195200C358B94692460EE0191C0133A6
:1097500080225200A3509046822252000136675464
:10976000A7544E4501D101F02CFB3778FF2BEDD1EA
:1097700051465A466158A2583E913D920020E0540D
:10978000FF213E9A3D9B201C984790235B00E258A6
:1097900000210132E2500123DAE7842252008023C3
:1097A0004F4E5B00162792468622C358BF190020F1
:1097B0005200B846834691460DE0191C01338022C1
:1097C0005200A3508222520001366754A7544645E6
:1097D00001D101F031FB3778FF2BEED159464A46D3
:1097E000E154A2585346E358FF21201C4292984767
:1097F00090235B00E25800210132E2500123DEE7B2
:10980000842252008023374E5B0013279246862223
:10981000C358BF1900205200B846834691460DE058
:10982000191C013380225200A350822252000136BB
:109830006754A754464501D101F021FC3778FF2B2E
:10984000EED159464A46E154A2585346E358FF2107
:10985000201C4492984790235B00E258002101327B
:10986000E2500123DEE78422520080231E4E5B007B
:109870001A2792468622C358BF1900205200B846C4
:10988000834691460DE0191C013380225200A350FB
:109890008222520001366754A754464501D101F097
:1098A000FCFB3778FF2BEED159464A46E154A258CB
:1098B0005346E358FF21201C4892984790235B00B1
:1098C000E25800210132E2500123DEE7FCFDFFFFF8
:1098D00084090100501401001C1401003814010017
:1098E00004140100F0130100C4130100842252008B
:1098F0008023E64E5B000F2792468622C358BF198D
:1099000000205200B846834691460DE0191C0133F1
:1099100080225200A3508222520001366754A7547D
:10992000464501D101F0B2FB3778FF2BEED1594605
:109930004A46E154A2585346E358FF21201C469260
:10994000984790235B00E25800210132E250012346
:10995000DEE7842252008023CD4E5B001127924621
:109960008622C358BF1900205200B846834691464C
:109970000DE0191C013380225200A35082225200B4
:1099800001366754A754464501D101F08DFB377865
:10999000FF2BEED159464A46E154A2585346E358AC
:1099A000FF21201C4A92984790235B00E258002137
:1099B0000132E2500123DEE7842252008023B54EBB
:1099C0005B00152792468622C358BF19002052001B
:1099D000B846834691460DE0191C0133802252009F
:1099E000A3508222520001366754A754464501D144
:1099F00001F029FB3778FF2BEED159464A46E15456
:109A0000A2585346E358FF21201C4C9298479023BC
:109A10005B00E25800210132E2500123DEE784229C
:109A2000520080239C4E5B00122792468622C35828
:109A3000BF1900205200B846834691460DE0191C1C
:109A4000013380225200A350822252000136675413
:109A5000A754464501D101F004FB3778FF2BEED126
:109A600059464A46E154A2585346E358FF21201C68
:109A70005092984790235B00E25800210132E25057
:109A80000123DEE7842252008023844E5B001027EE
:109A900092468622C358BF1900205200B84683461A
:109AA00091460DE0191C013380225200A3508222FE
:109AB000520001366754A754464501D101F0CAFA55
:109AC0003778FF2BEED159464A46E154A258534607
:109AD000E358FF21201C4E92984790235B00E258E8
